{
  "contractName": "ArticleContract",
  "abi": [
    {
      "constant": false,
      "inputs": [],
      "name": "renounceOwnership",
      "outputs": [],
      "payable": false,
      "stateMutability": "nonpayable",
      "type": "function"
    },
    {
      "constant": true,
      "inputs": [],
      "name": "owner",
      "outputs": [
        {
          "name": "",
          "type": "address"
        }
      ],
      "payable": false,
      "stateMutability": "view",
      "type": "function"
    },
    {
      "constant": false,
      "inputs": [
        {
          "name": "_newOwner",
          "type": "address"
        }
      ],
      "name": "transferOwnership",
      "outputs": [],
      "payable": false,
      "stateMutability": "nonpayable",
      "type": "function"
    },
    {
      "inputs": [
        {
          "name": "_oarAddress",
          "type": "address"
        }
      ],
      "payable": true,
      "stateMutability": "payable",
      "type": "constructor"
    },
    {
      "payable": false,
      "stateMutability": "nonpayable",
      "type": "fallback"
    },
    {
      "anonymous": false,
      "inputs": [
        {
          "indexed": false,
          "name": "result",
          "type": "string"
        }
      ],
      "name": "CallbackReceived",
      "type": "event"
    },
    {
      "anonymous": false,
      "inputs": [
        {
          "indexed": true,
          "name": "previousOwner",
          "type": "address"
        }
      ],
      "name": "OwnershipRenounced",
      "type": "event"
    },
    {
      "anonymous": false,
      "inputs": [
        {
          "indexed": true,
          "name": "previousOwner",
          "type": "address"
        },
        {
          "indexed": true,
          "name": "newOwner",
          "type": "address"
        }
      ],
      "name": "OwnershipTransferred",
      "type": "event"
    },
    {
      "constant": false,
      "inputs": [
        {
          "name": "myid",
          "type": "bytes32"
        },
        {
          "name": "result",
          "type": "string"
        }
      ],
      "name": "__callback",
      "outputs": [],
      "payable": false,
      "stateMutability": "nonpayable",
      "type": "function"
    },
    {
      "constant": false,
      "inputs": [
        {
          "name": "id",
          "type": "bytes32"
        },
        {
          "name": "result",
          "type": "string"
        },
        {
          "name": "proof",
          "type": "bytes"
        }
      ],
      "name": "__callback",
      "outputs": [],
      "payable": false,
      "stateMutability": "nonpayable",
      "type": "function"
    },
    {
      "constant": false,
      "inputs": [],
      "name": "publishArticle",
      "outputs": [],
      "payable": true,
      "stateMutability": "payable",
      "type": "function"
    }
  ],
  "bytecode": "0x608060405260405160208062001b408339810180604052810190808051906020019092919050505033600560006101000a81548173ffffffffffffffffffffffffffffffffffffffff021916908373ffffffffffffffffffffffffffffffffffffffff160217905550806000806101000a81548173ffffffffffffffffffffffffffffffffffffffff021916908373ffffffffffffffffffffffffffffffffffffffff1602179055506200010a60017f01000000000000000000000000000000000000000000000000000000000000000260107f0100000000000000000000000000000000000000000000000000000000000000021762000111640100000000026401000000009004565b5062000b15565b60008060009054906101000a900473ffffffffffffffffffffffffffffffffffffffff1673ffffffffffffffffffffffffffffffffffffffff1614806200019257506000620001906000809054906101000a900473ffffffffffffffffffffffffffffffffffffffff16620004c5640100000000026401000000009004565b145b15620001b557620001b36000620004d0640100000000026401000000009004565b505b6000809054906101000a900473ffffffffffffffffffffffffffffffffffffffff1673ffffffffffffffffffffffffffffffffffffffff166338cc48316040518163ffffffff167c0100000000000000000000000000000000000000000000000000000000028152600401602060405180830381600087803b1580156200023b57600080fd5b505af115801562000250573d6000803e3d6000fd5b505050506040513d60208110156200026757600080fd5b810190808051906020019092919050505073ffffffffffffffffffffffffffffffffffffffff16600160009054906101000a900473ffffffffffffffffffffffffffffffffffffffff1673ffffffffffffffffffffffffffffffffffffffff16141515620003d3576000809054906101000a900473ffffffffffffffffffffffffffffffffffffffff1673ffffffffffffffffffffffffffffffffffffffff166338cc48316040518163ffffffff167c0100000000000000000000000000000000000000000000000000000000028152600401602060405180830381600087803b1580156200035557600080fd5b505af11580156200036a573d6000803e3d6000fd5b505050506040513d60208110156200038157600080fd5b8101908080519060200190929190505050600160006101000a81548173ffffffffffffffffffffffffffffffffffffffff021916908373ffffffffffffffffffffffffffffffffffffffff1602179055505b600160009054906101000a900473ffffffffffffffffffffffffffffffffffffffff1673ffffffffffffffffffffffffffffffffffffffff1663688dcfd7826040518263ffffffff167c010000000000000000000000000000000000000000000000000000000002815260040180827effffffffffffffffffffffffffffffffffffffffffffffffffffffffffffff19167effffffffffffffffffffffffffffffffffffffffffffffffffffffffffffff19168152602001915050600060405180830381600087803b158015620004a957600080fd5b505af1158015620004be573d6000803e3d6000fd5b5050505050565b6000813b9050919050565b6000620004eb620004f2640100000000026401000000009004565b9050919050565b60008062000523731d3b2638a7cc9f2cb3d298a3da7a90b67e5506ed620004c5640100000000026401000000009004565b1115620005d757731d3b2638a7cc9f2cb3d298a3da7a90b67e5506ed6000806101000a81548173ffffffffffffffffffffffffffffffffffffffff021916908373ffffffffffffffffffffffffffffffffffffffff160217905550620005cd6040805190810160405280600b81526020017f6574685f6d61696e6e657400000000000000000000000000000000000000000081525062000a4a640100000000026401000000009004565b6001905062000a47565b60006200060773c03a2615d5efaf5f49f60b7bb6583eaec212fdf1620004c5640100000000026401000000009004565b1115620006bb5773c03a2615d5efaf5f49f60b7bb6583eaec212fdf16000806101000a81548173ffffffffffffffffffffffffffffffffffffffff021916908373ffffffffffffffffffffffffffffffffffffffff160217905550620006b16040805190810160405280600c81526020017f6574685f726f707374656e33000000000000000000000000000000000000000081525062000a4a640100000000026401000000009004565b6001905062000a47565b6000620006eb73b7a07bcf2ba2f2703b24c0691b5278999c59ac7e620004c5640100000000026401000000009004565b11156200079f5773b7a07bcf2ba2f2703b24c0691b5278999c59ac7e6000806101000a81548173ffffffffffffffffffffffffffffffffffffffff021916908373ffffffffffffffffffffffffffffffffffffffff160217905550620007956040805190810160405280600981526020017f6574685f6b6f76616e000000000000000000000000000000000000000000000081525062000a4a640100000000026401000000009004565b6001905062000a47565b6000620007cf73146500cfd35b22e4a392fe0adc06de1a1368ed48620004c5640100000000026401000000009004565b1115620008835773146500cfd35b22e4a392fe0adc06de1a1368ed486000806101000a81548173ffffffffffffffffffffffffffffffffffffffff021916908373ffffffffffffffffffffffffffffffffffffffff160217905550620008796040805190810160405280600b81526020017f6574685f72696e6b65627900000000000000000000000000000000000000000081525062000a4a640100000000026401000000009004565b6001905062000a47565b6000620008b3736f485c8bf6fc43ea212e93bbf8ce046c7f1cb475620004c5640100000000026401000000009004565b11156200091857736f485c8bf6fc43ea212e93bbf8ce046c7f1cb4756000806101000a81548173ffffffffffffffffffffffffffffffffffffffff021916908373ffffffffffffffffffffffffffffffffffffffff1602179055506001905062000a47565b6000620009487320e12a1f859b3feae5fb2a0a32c18f5a65555bbf620004c5640100000000026401000000009004565b1115620009ad577320e12a1f859b3feae5fb2a0a32c18f5a65555bbf6000806101000a81548173ffffffffffffffffffffffffffffffffffffffff021916908373ffffffffffffffffffffffffffffffffffffffff1602179055506001905062000a47565b6000620009dd7351efaf4c8b3c9afbd5ab9f4bbc82784ab6ef8faa620004c5640100000000026401000000009004565b111562000a42577351efaf4c8b3c9afbd5ab9f4bbc82784ab6ef8faa6000806101000a81548173ffffffffffffffffffffffffffffffffffffffff021916908373ffffffffffffffffffffffffffffffffffffffff1602179055506001905062000a47565b600090505b90565b806002908051906020019062000a6292919062000a66565b5050565b828054600181600116156101000203166002900490600052602060002090601f016020900481019282601f1062000aa957805160ff191683800117855562000ada565b8280016001018555821562000ada579182015b8281111562000ad957825182559160200191906001019062000abc565b5b50905062000ae9919062000aed565b5090565b62000b1291905b8082111562000b0e57600081600090555060010162000af4565b5090565b90565b61101b8062000b256000396000f300608060405260043610610078576000357c0100000000000000000000000000000000000000000000000000000000900463ffffffff16806327dc297e146100f357806338bbfa501461016a578063715018a6146102275780638bc8ec711461023e5780638da5cb5b14610248578063f2fde38b1461029f575b34801561008457600080fd5b506040517f08c379a00000000000000000000000000000000000000000000000000000000081526004018080602001828103825260088152602001807f726576657274656400000000000000000000000000000000000000000000000081525060200191505060405180910390fd5b3480156100ff57600080fd5b506101686004803603810190808035600019169060200190929190803590602001908201803590602001908080601f01602080910402602001604051908101604052809392919081815260200183838082843782019150505050505091929192905050506102e2565b005b34801561017657600080fd5b506102256004803603810190808035600019169060200190929190803590602001908201803590602001908080601f0160208091040260200160405190810160405280939291908181526020018383808284378201915050505050509192919290803590602001908201803590602001908080601f0160208091040260200160405190810160405280939291908181526020018383808284378201915050505050509192919290505050610325565b005b34801561023357600080fd5b5061023c610496565b005b61024661059b565b005b34801561025457600080fd5b5061025d61059d565b604051808273ffffffffffffffffffffffffffffffffffffffff1673ffffffffffffffffffffffffffffffffffffffff16815260200191505060405180910390f35b3480156102ab57600080fd5b506102e0600480360381019080803573ffffffffffffffffffffffffffffffffffffffff1690602001909291905050506105c3565b005b610321828260006040519080825280601f01601f19166020018201604052801561031b5781602001602082028038833980820191505090505b50610325565b5050565b61032d61062b565b73ffffffffffffffffffffffffffffffffffffffff163373ffffffffffffffffffffffffffffffffffffffff161415156103f5576040517f08c379a00000000000000000000000000000000000000000000000000000000081526004018080602001828103825260248152602001807f546869732061646472657373206973206e6f7420612076616c696420636f696e81526020017f626173650000000000000000000000000000000000000000000000000000000081525060400191505060405180910390fd5b7f71c6499d1634003bb62f4bb5c3a294ee7a3180f3f2c3ad77bbf1a077fa39001e826040518080602001828103825283818151815260200191508051906020019080838360005b8381101561045757808201518184015260208101905061043c565b50505050905090810190601f1680156104845780820380516001836020036101000a031916815260200191505b509250505060405180910390a1505050565b600560009054906101000a900473ffffffffffffffffffffffffffffffffffffffff1673ffffffffffffffffffffffffffffffffffffffff163373ffffffffffffffffffffffffffffffffffffffff161415156104f257600080fd5b600560009054906101000a900473ffffffffffffffffffffffffffffffffffffffff1673ffffffffffffffffffffffffffffffffffffffff167ff8df31144d9c2f0f6b59d69b8b98abd5459d07f2742c4df920b25aae33c6482060405160405180910390a26000600560006101000a81548173ffffffffffffffffffffffffffffffffffffffff021916908373ffffffffffffffffffffffffffffffffffffffff160217905550565b565b600560009054906101000a900473ffffffffffffffffffffffffffffffffffffffff1681565b600560009054906101000a900473ffffffffffffffffffffffffffffffffffffffff1673ffffffffffffffffffffffffffffffffffffffff163373ffffffffffffffffffffffffffffffffffffffff1614151561061f57600080fd5b61062881610989565b50565b6000806000809054906101000a900473ffffffffffffffffffffffffffffffffffffffff1673ffffffffffffffffffffffffffffffffffffffff16148061069b575060006106996000809054906101000a900473ffffffffffffffffffffffffffffffffffffffff16610a85565b145b156106ac576106aa6000610a90565b505b6000809054906101000a900473ffffffffffffffffffffffffffffffffffffffff1673ffffffffffffffffffffffffffffffffffffffff166338cc48316040518163ffffffff167c0100000000000000000000000000000000000000000000000000000000028152600401602060405180830381600087803b15801561073157600080fd5b505af1158015610745573d6000803e3d6000fd5b505050506040513d602081101561075b57600080fd5b810190808051906020019092919050505073ffffffffffffffffffffffffffffffffffffffff16600160009054906101000a900473ffffffffffffffffffffffffffffffffffffffff1673ffffffffffffffffffffffffffffffffffffffff161415156108c3576000809054906101000a900473ffffffffffffffffffffffffffffffffffffffff1673ffffffffffffffffffffffffffffffffffffffff166338cc48316040518163ffffffff167c0100000000000000000000000000000000000000000000000000000000028152600401602060405180830381600087803b15801561084757600080fd5b505af115801561085b573d6000803e3d6000fd5b505050506040513d602081101561087157600080fd5b8101908080519060200190929190505050600160006101000a81548173ffffffffffffffffffffffffffffffffffffffff021916908373ffffffffffffffffffffffffffffffffffffffff1602179055505b600160009054906101000a900473ffffffffffffffffffffffffffffffffffffffff1673ffffffffffffffffffffffffffffffffffffffff1663c281d19e6040518163ffffffff167c0100000000000000000000000000000000000000000000000000000000028152600401602060405180830381600087803b15801561094957600080fd5b505af115801561095d573d6000803e3d6000fd5b505050506040513d602081101561097357600080fd5b8101908080519060200190929190505050905090565b600073ffffffffffffffffffffffffffffffffffffffff168173ffffffffffffffffffffffffffffffffffffffff16141515156109c557600080fd5b8073ffffffffffffffffffffffffffffffffffffffff16600560009054906101000a900473ffffffffffffffffffffffffffffffffffffffff1673ffffffffffffffffffffffffffffffffffffffff167f8be0079c531659141344cd1fd0a4f28419497f9722a3daafe3b4186f6b6457e060405160405180910390a380600560006101000a81548173ffffffffffffffffffffffffffffffffffffffff021916908373ffffffffffffffffffffffffffffffffffffffff16021790555050565b6000813b9050919050565b6000610a9a610aa1565b9050919050565b600080610ac1731d3b2638a7cc9f2cb3d298a3da7a90b67e5506ed610a85565b1115610b6257731d3b2638a7cc9f2cb3d298a3da7a90b67e5506ed6000806101000a81548173ffffffffffffffffffffffffffffffffffffffff021916908373ffffffffffffffffffffffffffffffffffffffff160217905550610b596040805190810160405280600b81526020017f6574685f6d61696e6e6574000000000000000000000000000000000000000000815250610f30565b60019050610f2d565b6000610b8173c03a2615d5efaf5f49f60b7bb6583eaec212fdf1610a85565b1115610c225773c03a2615d5efaf5f49f60b7bb6583eaec212fdf16000806101000a81548173ffffffffffffffffffffffffffffffffffffffff021916908373ffffffffffffffffffffffffffffffffffffffff160217905550610c196040805190810160405280600c81526020017f6574685f726f707374656e330000000000000000000000000000000000000000815250610f30565b60019050610f2d565b6000610c4173b7a07bcf2ba2f2703b24c0691b5278999c59ac7e610a85565b1115610ce25773b7a07bcf2ba2f2703b24c0691b5278999c59ac7e6000806101000a81548173ffffffffffffffffffffffffffffffffffffffff021916908373ffffffffffffffffffffffffffffffffffffffff160217905550610cd96040805190810160405280600981526020017f6574685f6b6f76616e0000000000000000000000000000000000000000000000815250610f30565b60019050610f2d565b6000610d0173146500cfd35b22e4a392fe0adc06de1a1368ed48610a85565b1115610da25773146500cfd35b22e4a392fe0adc06de1a1368ed486000806101000a81548173ffffffffffffffffffffffffffffffffffffffff021916908373ffffffffffffffffffffffffffffffffffffffff160217905550610d996040805190810160405280600b81526020017f6574685f72696e6b656279000000000000000000000000000000000000000000815250610f30565b60019050610f2d565b6000610dc1736f485c8bf6fc43ea212e93bbf8ce046c7f1cb475610a85565b1115610e2457736f485c8bf6fc43ea212e93bbf8ce046c7f1cb4756000806101000a81548173ffffffffffffffffffffffffffffffffffffffff021916908373ffffffffffffffffffffffffffffffffffffffff16021790555060019050610f2d565b6000610e437320e12a1f859b3feae5fb2a0a32c18f5a65555bbf610a85565b1115610ea6577320e12a1f859b3feae5fb2a0a32c18f5a65555bbf6000806101000a81548173ffffffffffffffffffffffffffffffffffffffff021916908373ffffffffffffffffffffffffffffffffffffffff16021790555060019050610f2d565b6000610ec57351efaf4c8b3c9afbd5ab9f4bbc82784ab6ef8faa610a85565b1115610f28577351efaf4c8b3c9afbd5ab9f4bbc82784ab6ef8faa6000806101000a81548173ffffffffffffffffffffffffffffffffffffffff021916908373ffffffffffffffffffffffffffffffffffffffff16021790555060019050610f2d565b600090505b90565b8060029080519060200190610f46929190610f4a565b5050565b828054600181600116156101000203166002900490600052602060002090601f016020900481019282601f10610f8b57805160ff1916838001178555610fb9565b82800160010185558215610fb9579182015b82811115610fb8578251825591602001919060010190610f9d565b5b509050610fc69190610fca565b5090565b610fec91905b80821115610fe8576000816000905550600101610fd0565b5090565b905600a165627a7a72305820f9958f0de8615e0792db84929219c1d9d7fc29f9ba2824b46986e583d0a85d170029",
  "source": "pragma solidity ^0.4.24;\r\n\r\nimport \"../installed_contracts/oraclize-api/contracts/usingOraclize.sol\";\r\nimport \"../node_modules/openzeppelin-solidity/contracts/ownership/Ownable.sol\";\r\n\r\ncontract ArticleContract is usingOraclize, Ownable {\r\n//==========================================================================\r\n    //It will represents a single scientific article\r\n    struct Article {\r\n        string title; //represents a title\r\n        string author; //author name\r\n        string issn; //8 digit number for identify and validate the article ISSN (International Standard Serial Number)\r\n        string category;\r\n        string description; //a brief description for the article\r\n        string filePath; //the directory where the article will be storage\r\n        address articleAddress;\r\n    }\r\n\r\n    mapping(uint => mapping(uint => Article)) data;\r\n    \r\n    event CallbackReceived(string result);\r\n\r\n    //----------------------------------------------------------------------------\r\n    constructor(address _oarAddress) public payable{\r\n        OAR = OraclizeAddrResolverI(_oarAddress);\r\n        oraclize_setProof(proofType_TLSNotary | proofStorage_IPFS);\r\n    }\r\n    //----------------------------------------------------------------------------\r\n    function __callback(bytes32 id, string result, bytes proof) public {\r\n        require(msg.sender == oraclize_cbAddress(), \"This address is not a valid coinbase\");\r\n\r\n        emit CallbackReceived(result);        \r\n    }\r\n    //----------------------------------------------------------------------------\r\n    // Fallback function\r\n    function() public{\r\n        revert(\"reverted\");\r\n    }\r\n    //----------------------------------------------------------------------------\r\n    function publishArticle() public payable {\r\n        // oraclize_query(\"URL\", datasource, _article.issn);\r\n        // oraclize_query(\"URL\", datasource);                \r\n    }\r\n//==========================================================================\r\n}",
  "sourcePath": "C:\\Users\\Helfstein\\Desktop\\TCC\\dapp-scientific-article\\src\\contracts\\ArticleContract.sol",
  "compiler": {
    "name": "solc",
    "version": "0.4.24+commit.e67f0147.Emscripten.clang"
  },
  "schemaVersion": "2.0.1",
  "updatedAt": "2018-09-01T01:03:48.063Z"
}