{
  "contractName": "Teste",
  "abi": [
    {
      "constant": false,
      "inputs": [
        {
          "name": "myid",
          "type": "bytes32"
        },
        {
          "name": "result",
          "type": "string"
        }
      ],
      "name": "__callback",
      "outputs": [],
      "payable": false,
      "stateMutability": "nonpayable",
      "type": "function"
    },
    {
      "constant": false,
      "inputs": [
        {
          "name": "myid",
          "type": "bytes32"
        },
        {
          "name": "result",
          "type": "string"
        },
        {
          "name": "proof",
          "type": "bytes"
        }
      ],
      "name": "__callback",
      "outputs": [],
      "payable": false,
      "stateMutability": "nonpayable",
      "type": "function"
    },
    {
      "inputs": [
        {
          "name": "_oarAddress",
          "type": "address"
        }
      ],
      "payable": true,
      "stateMutability": "payable",
      "type": "constructor"
    }
  ],
  "bytecode": "0x6080604052604051602080610c9783398101806040528101908080519060200190929190505050806000806101000a81548173ffffffffffffffffffffffffffffffffffffffff021916908373ffffffffffffffffffffffffffffffffffffffff1602179055506100c660017f01000000000000000000000000000000000000000000000000000000000000000260107f010000000000000000000000000000000000000000000000000000000000000002176100cc640100000000026401000000009004565b50610a8f565b60008060009054906101000a900473ffffffffffffffffffffffffffffffffffffffff1673ffffffffffffffffffffffffffffffffffffffff16148061014a575060006101486000809054906101000a900473ffffffffffffffffffffffffffffffffffffffff16610471640100000000026401000000009004565b145b1561016a57610168600061047c640100000000026401000000009004565b505b6000809054906101000a900473ffffffffffffffffffffffffffffffffffffffff1673ffffffffffffffffffffffffffffffffffffffff166338cc48316040518163ffffffff167c0100000000000000000000000000000000000000000000000000000000028152600401602060405180830381600087803b1580156101ef57600080fd5b505af1158015610203573d6000803e3d6000fd5b505050506040513d602081101561021957600080fd5b810190808051906020019092919050505073ffffffffffffffffffffffffffffffffffffffff16600160009054906101000a900473ffffffffffffffffffffffffffffffffffffffff1673ffffffffffffffffffffffffffffffffffffffff16141515610381576000809054906101000a900473ffffffffffffffffffffffffffffffffffffffff1673ffffffffffffffffffffffffffffffffffffffff166338cc48316040518163ffffffff167c0100000000000000000000000000000000000000000000000000000000028152600401602060405180830381600087803b15801561030557600080fd5b505af1158015610319573d6000803e3d6000fd5b505050506040513d602081101561032f57600080fd5b8101908080519060200190929190505050600160006101000a81548173ffffffffffffffffffffffffffffffffffffffff021916908373ffffffffffffffffffffffffffffffffffffffff1602179055505b600160009054906101000a900473ffffffffffffffffffffffffffffffffffffffff1673ffffffffffffffffffffffffffffffffffffffff1663688dcfd7826040518263ffffffff167c010000000000000000000000000000000000000000000000000000000002815260040180827effffffffffffffffffffffffffffffffffffffffffffffffffffffffffffff19167effffffffffffffffffffffffffffffffffffffffffffffffffffffffffffff19168152602001915050600060405180830381600087803b15801561045657600080fd5b505af115801561046a573d6000803e3d6000fd5b5050505050565b6000813b9050919050565b600061049561049c640100000000026401000000009004565b9050919050565b6000806104cb731d3b2638a7cc9f2cb3d298a3da7a90b67e5506ed610471640100000000026401000000009004565b111561057b57731d3b2638a7cc9f2cb3d298a3da7a90b67e5506ed6000806101000a81548173ffffffffffffffffffffffffffffffffffffffff021916908373ffffffffffffffffffffffffffffffffffffffff1602179055506105726040805190810160405280600b81526020017f6574685f6d61696e6e65740000000000000000000000000000000000000000008152506109d0640100000000026401000000009004565b600190506109cd565b60006105a973c03a2615d5efaf5f49f60b7bb6583eaec212fdf1610471640100000000026401000000009004565b11156106595773c03a2615d5efaf5f49f60b7bb6583eaec212fdf16000806101000a81548173ffffffffffffffffffffffffffffffffffffffff021916908373ffffffffffffffffffffffffffffffffffffffff1602179055506106506040805190810160405280600c81526020017f6574685f726f707374656e3300000000000000000000000000000000000000008152506109d0640100000000026401000000009004565b600190506109cd565b600061068773b7a07bcf2ba2f2703b24c0691b5278999c59ac7e610471640100000000026401000000009004565b11156107375773b7a07bcf2ba2f2703b24c0691b5278999c59ac7e6000806101000a81548173ffffffffffffffffffffffffffffffffffffffff021916908373ffffffffffffffffffffffffffffffffffffffff16021790555061072e6040805190810160405280600981526020017f6574685f6b6f76616e00000000000000000000000000000000000000000000008152506109d0640100000000026401000000009004565b600190506109cd565b600061076573146500cfd35b22e4a392fe0adc06de1a1368ed48610471640100000000026401000000009004565b11156108155773146500cfd35b22e4a392fe0adc06de1a1368ed486000806101000a81548173ffffffffffffffffffffffffffffffffffffffff021916908373ffffffffffffffffffffffffffffffffffffffff16021790555061080c6040805190810160405280600b81526020017f6574685f72696e6b6562790000000000000000000000000000000000000000008152506109d0640100000000026401000000009004565b600190506109cd565b6000610843736f485c8bf6fc43ea212e93bbf8ce046c7f1cb475610471640100000000026401000000009004565b11156108a657736f485c8bf6fc43ea212e93bbf8ce046c7f1cb4756000806101000a81548173ffffffffffffffffffffffffffffffffffffffff021916908373ffffffffffffffffffffffffffffffffffffffff160217905550600190506109cd565b60006108d47320e12a1f859b3feae5fb2a0a32c18f5a65555bbf610471640100000000026401000000009004565b1115610937577320e12a1f859b3feae5fb2a0a32c18f5a65555bbf6000806101000a81548173ffffffffffffffffffffffffffffffffffffffff021916908373ffffffffffffffffffffffffffffffffffffffff160217905550600190506109cd565b60006109657351efaf4c8b3c9afbd5ab9f4bbc82784ab6ef8faa610471640100000000026401000000009004565b11156109c8577351efaf4c8b3c9afbd5ab9f4bbc82784ab6ef8faa6000806101000a81548173ffffffffffffffffffffffffffffffffffffffff021916908373ffffffffffffffffffffffffffffffffffffffff160217905550600190506109cd565b600090505b90565b80600290805190602001906109e69291906109ea565b5050565b828054600181600116156101000203166002900490600052602060002090601f016020900481019282601f10610a2b57805160ff1916838001178555610a59565b82800160010185558215610a59579182015b82811115610a58578251825591602001919060010190610a3d565b5b509050610a669190610a6a565b5090565b610a8c91905b80821115610a88576000816000905550600101610a70565b5090565b90565b6101f980610a9e6000396000f30060806040526004361061004c576000357c0100000000000000000000000000000000000000000000000000000000900463ffffffff16806327dc297e1461005157806338bbfa50146100c8575b600080fd5b34801561005d57600080fd5b506100c66004803603810190808035600019169060200190929190803590602001908201803590602001908080601f0160208091040260200160405190810160405280939291908181526020018383808284378201915050505050509192919290505050610185565b005b3480156100d457600080fd5b506101836004803603810190808035600019169060200190929190803590602001908201803590602001908080601f0160208091040260200160405190810160405280939291908181526020018383808284378201915050505050509192919290803590602001908201803590602001908080601f01602080910402602001604051908101604052809392919081815260200183838082843782019150505050505091929192905050506101c8565b005b6101c4828260006040519080825280601f01601f1916602001820160405280156101be5781602001602082028038833980820191505090505b506101c8565b5050565b5050505600a165627a7a72305820abf1b4bbc5725ffd7ef8c48219915296c89375c3dd482ee13b9fbda06186c9c20029",
  "source": "pragma solidity ^0.4.22;\r\n\r\nimport \"installed_contracts/oraclize-api/contracts/usingOraclize.sol\";\r\n\r\ncontract Teste is usingOraclize {\r\n\r\n    \r\n    constructor (address _oarAddress) public payable {\r\n        OAR = OraclizeAddrResolverI(_oarAddress);\r\n        oraclize_setProof(proofType_TLSNotary | proofStorage_IPFS);\r\n    }\r\n\r\n\r\n}",
  "sourcePath": "C:\\Users\\Helfstein\\Desktop\\TCC\\dapp-scientific-article\\src\\contracts\\Teste.sol",
  "compiler": {
    "name": "solc",
    "version": "0.4.24+commit.e67f0147.Emscripten.clang"
  },
  "schemaVersion": "2.0.1",
  "updatedAt": "2018-09-01T01:03:49.477Z"
}