{
  "contractName": "TabelFipe",
  "abi": [
    {
      "constant": true,
      "inputs": [],
      "name": "marca",
      "outputs": [
        {
          "name": "",
          "type": "string"
        }
      ],
      "payable": false,
      "stateMutability": "view",
      "type": "function"
    },
    {
      "anonymous": false,
      "inputs": [
        {
          "indexed": false,
          "name": "description",
          "type": "string"
        }
      ],
      "name": "newOraclizeQuery",
      "type": "event"
    },
    {
      "anonymous": false,
      "inputs": [
        {
          "indexed": false,
          "name": "marca",
          "type": "string"
        }
      ],
      "name": "resultMarcaCarro",
      "type": "event"
    },
    {
      "constant": false,
      "inputs": [],
      "name": "artigo",
      "outputs": [],
      "payable": false,
      "stateMutability": "nonpayable",
      "type": "function"
    },
    {
      "constant": false,
      "inputs": [
        {
          "name": "myid",
          "type": "bytes32"
        },
        {
          "name": "result",
          "type": "string"
        }
      ],
      "name": "__callback",
      "outputs": [],
      "payable": false,
      "stateMutability": "nonpayable",
      "type": "function"
    },
    {
      "constant": false,
      "inputs": [
        {
          "name": "myid",
          "type": "bytes32"
        },
        {
          "name": "result",
          "type": "string"
        },
        {
          "name": "proof",
          "type": "bytes"
        }
      ],
      "name": "__callback",
      "outputs": [],
      "payable": false,
      "stateMutability": "nonpayable",
      "type": "function"
    },
    {
      "constant": false,
      "inputs": [],
      "name": "consultar",
      "outputs": [],
      "payable": true,
      "stateMutability": "payable",
      "type": "function"
    }
  ],
  "bytecode": "0x608060405234801561001057600080fd5b50610f89806100206000396000f30060806040526004361061006d576000357c0100000000000000000000000000000000000000000000000000000000900463ffffffff1680631bf2b5111461007257806327dc297e1461010257806338bbfa501461017957806370f05f9714610236578063d169a44b14610240575b600080fd5b34801561007e57600080fd5b50610087610257565b6040518080602001828103825283818151815260200191508051906020019080838360005b838110156100c75780820151818401526020810190506100ac565b50505050905090810190601f1680156100f45780820380516001836020036101000a031916815260200191505b509250505060405180910390f35b34801561010e57600080fd5b506101776004803603810190808035600019169060200190929190803590602001908201803590602001908080601f01602080910402602001604051908101604052809392919081815260200183838082843782019150505050505091929192905050506102f5565b005b34801561018557600080fd5b506102346004803603810190808035600019169060200190929190803590602001908201803590602001908080601f0160208091040260200160405190810160405280939291908181526020018383808284378201915050505050509192919290803590602001908201803590602001908080601f016020809104026020016040519081016040528093929190818152602001838380828437820191505050505050919291929050505061040b565b005b61023e610410565b005b34801561024c57600080fd5b5061025561053c565b005b60028054600181600116156101000203166002900480601f0160208091040260200160405190810160405280929190818152602001828054600181600116156101000203166002900480156102ed5780601f106102c2576101008083540402835291602001916102ed565b820191906000526020600020905b8154815290600101906020018083116102d057829003601f168201915b505050505081565b6102fd610546565b73ffffffffffffffffffffffffffffffffffffffff163373ffffffffffffffffffffffffffffffffffffffff1614151561033657600080fd5b806002908051906020019061034c929190610eb8565b507fdd2bdc700c5a37e35ffd08c9eaaacdb438ee960371b48ec8aa723c6af7c4461a600260405180806020018281038252838181546001816001161561010002031660029004815260200191508054600181600116156101000203166002900480156103f95780601f106103ce576101008083540402835291602001916103f9565b820191906000526020600020905b8154815290600101906020018083116103dc57829003601f168201915b50509250505060405180910390a15050565b505050565b7f46cb989ef9cef13e930e3b7f286225a086e716a90d63e0b7da85d310a9db0c9a6040518080602001828103825260148152602001807f436f6e737574617220546162656c61204669706500000000000000000000000081525060200191505060405180910390a16105396040805190810160405280600381526020017f55524c0000000000000000000000000000000000000000000000000000000000815250608060405190810160405280604f81526020017f6a736f6e28687474703a2f2f666970656170692e61707073706f742e636f6d2f81526020017f6170692f312f636172726f732f76656963756c6f2f32312f343832382f32303181526020017f332d312e6a736f6e292e6d61726361000000000000000000000000000000000081525061078d565b50565b610544610410565b565b6000806000809054906101000a900473ffffffffffffffffffffffffffffffffffffffff1673ffffffffffffffffffffffffffffffffffffffff1614806105b6575060006105b46000809054906101000a900473ffffffffffffffffffffffffffffffffffffffff16610c18565b145b156105c7576105c56000610c23565b505b6000809054906101000a900473ffffffffffffffffffffffffffffffffffffffff1673ffffffffffffffffffffffffffffffffffffffff166338cc48316040518163ffffffff167c0100000000000000000000000000000000000000000000000000000000028152600401602060405180830381600087803b15801561064c57600080fd5b505af1158015610660573d6000803e3d6000fd5b505050506040513d602081101561067657600080fd5b8101908080519060200190929190505050600160006101000a81548173ffffffffffffffffffffffffffffffffffffffff021916908373ffffffffffffffffffffffffffffffffffffffff160217905550600160009054906101000a900473ffffffffffffffffffffffffffffffffffffffff1673ffffffffffffffffffffffffffffffffffffffff1663c281d19e6040518163ffffffff167c0100000000000000000000000000000000000000000000000000000000028152600401602060405180830381600087803b15801561074d57600080fd5b505af1158015610761573d6000803e3d6000fd5b505050506040513d602081101561077757600080fd5b8101908080519060200190929190505050905090565b60008060008060009054906101000a900473ffffffffffffffffffffffffffffffffffffffff1673ffffffffffffffffffffffffffffffffffffffff1614806107ff575060006107fd6000809054906101000a900473ffffffffffffffffffffffffffffffffffffffff16610c18565b145b156108105761080e6000610c23565b505b6000809054906101000a900473ffffffffffffffffffffffffffffffffffffffff1673ffffffffffffffffffffffffffffffffffffffff166338cc48316040518163ffffffff167c0100000000000000000000000000000000000000000000000000000000028152600401602060405180830381600087803b15801561089557600080fd5b505af11580156108a9573d6000803e3d6000fd5b505050506040513d60208110156108bf57600080fd5b8101908080519060200190929190505050600160006101000a81548173ffffffffffffffffffffffffffffffffffffffff021916908373ffffffffffffffffffffffffffffffffffffffff160217905550600160009054906101000a900473ffffffffffffffffffffffffffffffffffffffff1673ffffffffffffffffffffffffffffffffffffffff1663524f3889856040518263ffffffff167c01000000000000000000000000000000000000000000000000000000000281526004018080602001828103825283818151815260200191508051906020019080838360005b838110156109ba57808201518184015260208101905061099f565b50505050905090810190601f1680156109e75780820380516001836020036101000a031916815260200191505b5092505050602060405180830381600087803b158015610a0657600080fd5b505af1158015610a1a573d6000803e3d6000fd5b505050506040513d6020811015610a3057600080fd5b8101908080519060200190929190505050905062030d403a02670de0b6b3a764000001811115610a665760006001029150610c11565b600160009054906101000a900473ffffffffffffffffffffffffffffffffffffffff1673ffffffffffffffffffffffffffffffffffffffff1663adf59f9982600087876040518563ffffffff167c0100000000000000000000000000000000000000000000000000000000028152600401808481526020018060200180602001838103835285818151815260200191508051906020019080838360005b83811015610b1e578082015181840152602081019050610b03565b50505050905090810190601f168015610b4b5780820380516001836020036101000a031916815260200191505b50838103825284818151815260200191508051906020019080838360005b83811015610b84578082015181840152602081019050610b69565b50505050905090810190601f168015610bb15780820380516001836020036101000a031916815260200191505b50955050505050506020604051808303818588803b158015610bd257600080fd5b505af1158015610be6573d6000803e3d6000fd5b50505050506040513d6020811015610bfd57600080fd5b810190808051906020019092919050505091505b5092915050565b6000813b9050919050565b600080610c43731d3b2638a7cc9f2cb3d298a3da7a90b67e5506ed610c18565b1115610ca657731d3b2638a7cc9f2cb3d298a3da7a90b67e5506ed6000806101000a81548173ffffffffffffffffffffffffffffffffffffffff021916908373ffffffffffffffffffffffffffffffffffffffff16021790555060019050610eb3565b6000610cc573c03a2615d5efaf5f49f60b7bb6583eaec212fdf1610c18565b1115610d285773c03a2615d5efaf5f49f60b7bb6583eaec212fdf16000806101000a81548173ffffffffffffffffffffffffffffffffffffffff021916908373ffffffffffffffffffffffffffffffffffffffff16021790555060019050610eb3565b6000610d47736f485c8bf6fc43ea212e93bbf8ce046c7f1cb475610c18565b1115610daa57736f485c8bf6fc43ea212e93bbf8ce046c7f1cb4756000806101000a81548173ffffffffffffffffffffffffffffffffffffffff021916908373ffffffffffffffffffffffffffffffffffffffff16021790555060019050610eb3565b6000610dc97320e12a1f859b3feae5fb2a0a32c18f5a65555bbf610c18565b1115610e2c577320e12a1f859b3feae5fb2a0a32c18f5a65555bbf6000806101000a81548173ffffffffffffffffffffffffffffffffffffffff021916908373ffffffffffffffffffffffffffffffffffffffff16021790555060019050610eb3565b6000610e4b7351efaf4c8b3c9afbd5ab9f4bbc82784ab6ef8faa610c18565b1115610eae577351efaf4c8b3c9afbd5ab9f4bbc82784ab6ef8faa6000806101000a81548173ffffffffffffffffffffffffffffffffffffffff021916908373ffffffffffffffffffffffffffffffffffffffff16021790555060019050610eb3565b600090505b919050565b828054600181600116156101000203166002900490600052602060002090601f016020900481019282601f10610ef957805160ff1916838001178555610f27565b82800160010185558215610f27579182015b82811115610f26578251825591602001919060010190610f0b565b5b509050610f349190610f38565b5090565b610f5a91905b80821115610f56576000816000905550600101610f3e565b5090565b905600a165627a7a7230582043c9f6d0a37931a96dbabfb91046014b1f1719228687c0b59a6eae9261fc98cc0029",
  "source": "/*\r\n   Consutar Tabela Fipe\r\n*/\r\n\r\npragma solidity ^0.4.0;\r\nimport \"./oraclize/usingOraclize.sol\";\r\n\r\ncontract TabelFipe is usingOraclize {\r\n    \r\n    //uint id;\r\n    string public marca;\r\n    //string modelo;\r\n    //string ano;\r\n    \r\n    event newOraclizeQuery(string description);\r\n    event resultMarcaCarro(string marca);\r\n\r\n    function artigo() {\r\n        consultar();\r\n    }\r\n    \r\n    function __callback(bytes32 myid, string result) {\r\n        if (msg.sender != oraclize_cbAddress())\r\n            throw;\r\n        marca = result;\r\n        resultMarcaCarro(marca);\r\n    }\r\n    \r\n    function consultar() payable {\r\n        newOraclizeQuery(\"Consutar Tabela Fipe\");\r\n        oraclize_query(\"URL\", \"json(http://fipeapi.appspot.com/api/1/carros/veiculo/21/4828/2013-1.json).marca\");\r\n    }\r\n} \r\n                                           \r\n",
  "sourcePath": "C:\\Users\\Yuji\\Documents\\artigo\\contracts\\TabelaFipe.sol",
  "compiler": {
    "name": "solc",
    "version": "0.4.24+commit.e67f0147.Emscripten.clang"
  },
  "schemaVersion": "2.0.1",
  "updatedAt": "2018-07-12T22:44:14.106Z"
}