{
  "contractName": "usingOraclize",
  "abi": [
    {
      "constant": false,
      "inputs": [
        {
          "name": "myid",
          "type": "bytes32"
        },
        {
          "name": "result",
          "type": "string"
        }
      ],
      "name": "__callback",
      "outputs": [],
      "payable": false,
      "stateMutability": "nonpayable",
      "type": "function"
    },
    {
      "constant": false,
      "inputs": [
        {
          "name": "myid",
          "type": "bytes32"
        },
        {
          "name": "result",
          "type": "string"
        },
        {
          "name": "proof",
          "type": "bytes"
        }
      ],
      "name": "__callback",
      "outputs": [],
      "payable": false,
      "stateMutability": "nonpayable",
      "type": "function"
    }
  ],
  "bytecode": "0x608060405234801561001057600080fd5b506101f9806100206000396000f30060806040526004361061004c576000357c0100000000000000000000000000000000000000000000000000000000900463ffffffff16806327dc297e1461005157806338bbfa50146100c8575b600080fd5b34801561005d57600080fd5b506100c66004803603810190808035600019169060200190929190803590602001908201803590602001908080601f0160208091040260200160405190810160405280939291908181526020018383808284378201915050505050509192919290505050610185565b005b3480156100d457600080fd5b506101836004803603810190808035600019169060200190929190803590602001908201803590602001908080601f0160208091040260200160405190810160405280939291908181526020018383808284378201915050505050509192919290803590602001908201803590602001908080601f01602080910402602001604051908101604052809392919081815260200183838082843782019150505050505091929192905050506101c8565b005b6101c4828260006040519080825280601f01601f1916602001820160405280156101be5781602001602082028038833980820191505090505b506101c8565b5050565b5050505600a165627a7a72305820974fefe68993857a2977122ac0b758fbe6e3c157c4828f9060e20eba433878600029",
  "source": "// <ORACLIZE_API>\n/*\nCopyright (c) 2015-2016 Oraclize SRL\nCopyright (c) 2016 Oraclize LTD\n\n\n\nPermission is hereby granted, free of charge, to any person obtaining a copy\nof this software and associated documentation files (the \"Software\"), to deal\nin the Software without restriction, including without limitation the rights\nto use, copy, modify, merge, publish, distribute, sublicense, and/or sell\ncopies of the Software, and to permit persons to whom the Software is\nfurnished to do so, subject to the following conditions:\n\n\n\nThe above copyright notice and this permission notice shall be included in\nall copies or substantial portions of the Software.\n\n\n\nTHE SOFTWARE IS PROVIDED \"AS IS\", WITHOUT WARRANTY OF ANY KIND, EXPRESS OR\nIMPLIED, INCLUDING BUT NOT LIMITED TO THE WARRANTIES OF MERCHANTABILITY,\nFITNESS FOR A PARTICULAR PURPOSE AND NONINFRINGEMENT.  IN NO EVENT SHALL THE\nAUTHORS OR COPYRIGHT HOLDERS BE LIABLE FOR ANY CLAIM, DAMAGES OR OTHER\nLIABILITY, WHETHER IN AN ACTION OF CONTRACT, TORT OR OTHERWISE, ARISING FROM,\nOUT OF OR IN CONNECTION WITH THE SOFTWARE OR THE USE OR OTHER DEALINGS IN\nTHE SOFTWARE.\n*/\n\npragma solidity ^0.4.0;//please import oraclizeAPI_pre0.4.sol when solidity < 0.4.0\n\ncontract OraclizeI {\n    address public cbAddress;\n    function query(uint _timestamp, string _datasource, string _arg) payable returns (bytes32 _id);\n    function query_withGasLimit(uint _timestamp, string _datasource, string _arg, uint _gaslimit) payable returns (bytes32 _id);\n    function query2(uint _timestamp, string _datasource, string _arg1, string _arg2) payable returns (bytes32 _id);\n    function query2_withGasLimit(uint _timestamp, string _datasource, string _arg1, string _arg2, uint _gaslimit) payable returns (bytes32 _id);\n    function getPrice(string _datasource) returns (uint _dsprice);\n    function getPrice(string _datasource, uint gaslimit) returns (uint _dsprice);\n    function useCoupon(string _coupon);\n    function setProofType(byte _proofType);\n    function setConfig(bytes32 _config);\n    function setCustomGasPrice(uint _gasPrice);\n}\ncontract OraclizeAddrResolverI {\n    function getAddress() returns (address _addr);\n}\ncontract usingOraclize {\n    uint constant day = 60*60*24;\n    uint constant week = 60*60*24*7;\n    uint constant month = 60*60*24*30;\n    byte constant proofType_NONE = 0x00;\n    byte constant proofType_TLSNotary = 0x10;\n    byte constant proofStorage_IPFS = 0x01;\n    uint8 constant networkID_auto = 0;\n    uint8 constant networkID_mainnet = 1;\n    uint8 constant networkID_testnet = 2;\n    uint8 constant networkID_morden = 2;\n    uint8 constant networkID_consensys = 161;\n\n    OraclizeAddrResolverI OAR;\n    \n    OraclizeI oraclize;\n    modifier oraclizeAPI {\n        if((address(OAR)==0)||(getCodeSize(address(OAR))==0)) oraclize_setNetwork(networkID_auto);\n        oraclize = OraclizeI(OAR.getAddress());\n        _;\n    }\n    modifier coupon(string code){\n        oraclize = OraclizeI(OAR.getAddress());\n        oraclize.useCoupon(code);\n        _;\n    }\n\n    function oraclize_setNetwork(uint8 networkID) internal returns(bool){\n        if (getCodeSize(0x1d3B2638a7cC9f2CB3D298A3DA7a90B67E5506ed)>0){ //mainnet\n            OAR = OraclizeAddrResolverI(0x1d3B2638a7cC9f2CB3D298A3DA7a90B67E5506ed);\n            return true;\n        }\n        if (getCodeSize(0xc03A2615D5efaf5F49F60B7BB6583eaec212fdf1)>0){ //ropsten testnet\n            OAR = OraclizeAddrResolverI(0xc03A2615D5efaf5F49F60B7BB6583eaec212fdf1);\n            return true;\n        }\n        if (getCodeSize(0x6f485C8BF6fc43eA212E93BBF8ce046C7f1cb475)>0){ //ethereum-bridge\n            OAR = OraclizeAddrResolverI(0x6f485C8BF6fc43eA212E93BBF8ce046C7f1cb475);\n            return true;\n        }\n        if (getCodeSize(0x20e12A1F859B3FeaE5Fb2A0A32C18F5a65555bBF)>0){ //ether.camp ide\n            OAR = OraclizeAddrResolverI(0x20e12A1F859B3FeaE5Fb2A0A32C18F5a65555bBF);\n            return true;\n        }\n        if (getCodeSize(0x51efaF4c8B3C9AfBD5aB9F4bbC82784Ab6ef8fAA)>0){ //browser-solidity\n            OAR = OraclizeAddrResolverI(0x51efaF4c8B3C9AfBD5aB9F4bbC82784Ab6ef8fAA);\n            return true;\n        }\n        return false;\n    }\n    \n    function __callback(bytes32 myid, string result) {\n        __callback(myid, result, new bytes(0));\n    }\n    function __callback(bytes32 myid, string result, bytes proof) {\n    }\n    \n    function oraclize_getPrice(string datasource) oraclizeAPI internal returns (uint){\n        return oraclize.getPrice(datasource);\n    }\n    function oraclize_getPrice(string datasource, uint gaslimit) oraclizeAPI internal returns (uint){\n        return oraclize.getPrice(datasource, gaslimit);\n    }\n    \n    function oraclize_query(string datasource, string arg) oraclizeAPI internal returns (bytes32 id){\n        uint price = oraclize.getPrice(datasource);\n        if (price > 1 ether + tx.gasprice*200000) return 0; // unexpectedly high price\n        return oraclize.query.value(price)(0, datasource, arg);\n    }\n    function oraclize_query(uint timestamp, string datasource, string arg) oraclizeAPI internal returns (bytes32 id){\n        uint price = oraclize.getPrice(datasource);\n        if (price > 1 ether + tx.gasprice*200000) return 0; // unexpectedly high price\n        return oraclize.query.value(price)(timestamp, datasource, arg);\n    }\n    function oraclize_query(uint timestamp, string datasource, string arg, uint gaslimit) oraclizeAPI internal returns (bytes32 id){\n        uint price = oraclize.getPrice(datasource, gaslimit);\n        if (price > 1 ether + tx.gasprice*gaslimit) return 0; // unexpectedly high price\n        return oraclize.query_withGasLimit.value(price)(timestamp, datasource, arg, gaslimit);\n    }\n    function oraclize_query(string datasource, string arg, uint gaslimit) oraclizeAPI internal returns (bytes32 id){\n        uint price = oraclize.getPrice(datasource, gaslimit);\n        if (price > 1 ether + tx.gasprice*gaslimit) return 0; // unexpectedly high price\n        return oraclize.query_withGasLimit.value(price)(0, datasource, arg, gaslimit);\n    }\n    function oraclize_query(string datasource, string arg1, string arg2) oraclizeAPI internal returns (bytes32 id){\n        uint price = oraclize.getPrice(datasource);\n        if (price > 1 ether + tx.gasprice*200000) return 0; // unexpectedly high price\n        return oraclize.query2.value(price)(0, datasource, arg1, arg2);\n    }\n    function oraclize_query(uint timestamp, string datasource, string arg1, string arg2) oraclizeAPI internal returns (bytes32 id){\n        uint price = oraclize.getPrice(datasource);\n        if (price > 1 ether + tx.gasprice*200000) return 0; // unexpectedly high price\n        return oraclize.query2.value(price)(timestamp, datasource, arg1, arg2);\n    }\n    function oraclize_query(uint timestamp, string datasource, string arg1, string arg2, uint gaslimit) oraclizeAPI internal returns (bytes32 id){\n        uint price = oraclize.getPrice(datasource, gaslimit);\n        if (price > 1 ether + tx.gasprice*gaslimit) return 0; // unexpectedly high price\n        return oraclize.query2_withGasLimit.value(price)(timestamp, datasource, arg1, arg2, gaslimit);\n    }\n    function oraclize_query(string datasource, string arg1, string arg2, uint gaslimit) oraclizeAPI internal returns (bytes32 id){\n        uint price = oraclize.getPrice(datasource, gaslimit);\n        if (price > 1 ether + tx.gasprice*gaslimit) return 0; // unexpectedly high price\n        return oraclize.query2_withGasLimit.value(price)(0, datasource, arg1, arg2, gaslimit);\n    }\n    function oraclize_cbAddress() oraclizeAPI internal returns (address){\n        return oraclize.cbAddress();\n    }\n    function oraclize_setProof(byte proofP) oraclizeAPI internal {\n        return oraclize.setProofType(proofP);\n    }\n    function oraclize_setCustomGasPrice(uint gasPrice) oraclizeAPI internal {\n        return oraclize.setCustomGasPrice(gasPrice);\n    }    \n    function oraclize_setConfig(bytes32 config) oraclizeAPI internal {\n        return oraclize.setConfig(config);\n    }\n\n    function getCodeSize(address _addr) constant internal returns(uint _size) {\n        assembly {\n            _size := extcodesize(_addr)\n        }\n    }\n\n\n    function parseAddr(string _a) internal returns (address){\n        bytes memory tmp = bytes(_a);\n        uint160 iaddr = 0;\n        uint160 b1;\n        uint160 b2;\n        for (uint i=2; i<2+2*20; i+=2){\n            iaddr *= 256;\n            b1 = uint160(tmp[i]);\n            b2 = uint160(tmp[i+1]);\n            if ((b1 >= 97)&&(b1 <= 102)) b1 -= 87;\n            else if ((b1 >= 48)&&(b1 <= 57)) b1 -= 48;\n            if ((b2 >= 97)&&(b2 <= 102)) b2 -= 87;\n            else if ((b2 >= 48)&&(b2 <= 57)) b2 -= 48;\n            iaddr += (b1*16+b2);\n        }\n        return address(iaddr);\n    }\n\n\n    function strCompare(string _a, string _b) internal returns (int) {\n        bytes memory a = bytes(_a);\n        bytes memory b = bytes(_b);\n        uint minLength = a.length;\n        if (b.length < minLength) minLength = b.length;\n        for (uint i = 0; i < minLength; i ++)\n            if (a[i] < b[i])\n                return -1;\n            else if (a[i] > b[i])\n                return 1;\n        if (a.length < b.length)\n            return -1;\n        else if (a.length > b.length)\n            return 1;\n        else\n            return 0;\n   } \n\n    function indexOf(string _haystack, string _needle) internal returns (int)\n    {\n        bytes memory h = bytes(_haystack);\n        bytes memory n = bytes(_needle);\n        if(h.length < 1 || n.length < 1 || (n.length > h.length)) \n            return -1;\n        else if(h.length > (2**128 -1))\n            return -1;                                  \n        else\n        {\n            uint subindex = 0;\n            for (uint i = 0; i < h.length; i ++)\n            {\n                if (h[i] == n[0])\n                {\n                    subindex = 1;\n                    while(subindex < n.length && (i + subindex) < h.length && h[i + subindex] == n[subindex])\n                    {\n                        subindex++;\n                    }   \n                    if(subindex == n.length)\n                        return int(i);\n                }\n            }\n            return -1;\n        }   \n    }\n\n    function strConcat(string _a, string _b, string _c, string _d, string _e) internal returns (string){\n        bytes memory _ba = bytes(_a);\n        bytes memory _bb = bytes(_b);\n        bytes memory _bc = bytes(_c);\n        bytes memory _bd = bytes(_d);\n        bytes memory _be = bytes(_e);\n        string memory abcde = new string(_ba.length + _bb.length + _bc.length + _bd.length + _be.length);\n        bytes memory babcde = bytes(abcde);\n        uint k = 0;\n        for (uint i = 0; i < _ba.length; i++) babcde[k++] = _ba[i];\n        for (i = 0; i < _bb.length; i++) babcde[k++] = _bb[i];\n        for (i = 0; i < _bc.length; i++) babcde[k++] = _bc[i];\n        for (i = 0; i < _bd.length; i++) babcde[k++] = _bd[i];\n        for (i = 0; i < _be.length; i++) babcde[k++] = _be[i];\n        return string(babcde);\n    }\n    \n    function strConcat(string _a, string _b, string _c, string _d) internal returns (string) {\n        return strConcat(_a, _b, _c, _d, \"\");\n    }\n\n    function strConcat(string _a, string _b, string _c) internal returns (string) {\n        return strConcat(_a, _b, _c, \"\", \"\");\n    }\n\n    function strConcat(string _a, string _b) internal returns (string) {\n        return strConcat(_a, _b, \"\", \"\", \"\");\n    }\n\n    // parseInt\n    function parseInt(string _a) internal returns (uint) {\n        return parseInt(_a, 0);\n    }\n\n    // parseInt(parseFloat*10^_b)\n    function parseInt(string _a, uint _b) internal returns (uint) {\n        bytes memory bresult = bytes(_a);\n        uint mint = 0;\n        bool decimals = false;\n        for (uint i=0; i<bresult.length; i++){\n            if ((bresult[i] >= 48)&&(bresult[i] <= 57)){\n                if (decimals){\n                   if (_b == 0) break;\n                    else _b--;\n                }\n                mint *= 10;\n                mint += uint(bresult[i]) - 48;\n            } else if (bresult[i] == 46) decimals = true;\n        }\n        if (_b > 0) mint *= 10**_b;\n        return mint;\n    }\n    \n    function uint2str(uint i) internal returns (string){\n        if (i == 0) return \"0\";\n        uint j = i;\n        uint len;\n        while (j != 0){\n            len++;\n            j /= 10;\n        }\n        bytes memory bstr = new bytes(len);\n        uint k = len - 1;\n        while (i != 0){\n            bstr[k--] = byte(48 + i % 10);\n            i /= 10;\n        }\n        return string(bstr);\n    }\n    \n    \n\n}\n// </ORACLIZE_API>\n",
  "sourcePath": "C:\\Users\\Yuji\\Documents\\artigo\\contracts\\oraclize\\usingOraclize.sol",
  "compiler": {
    "name": "solc",
    "version": "0.4.24+commit.e67f0147.Emscripten.clang"
  },
  "schemaVersion": "2.0.1",
  "updatedAt": "2018-07-13T16:55:26.077Z"
}